{
  "_format": "hh-sol-artifact-1",
  "contractName": "Token",
  "sourceName": "contracts/token.sol",
  "abi": [
    {
      "inputs": [],
      "stateMutability": "nonpayable",
      "type": "constructor"
    },
    {
      "inputs": [
        {
          "internalType": "address",
          "name": "account",
          "type": "address"
        }
      ],
      "name": "balanceOf",
      "outputs": [
        {
          "internalType": "uint256",
          "name": "",
          "type": "uint256"
        }
      ],
      "stateMutability": "view",
      "type": "function"
    },
    {
      "inputs": [],
      "name": "owner",
      "outputs": [
        {
          "internalType": "address",
          "name": "",
          "type": "address"
        }
      ],
      "stateMutability": "view",
      "type": "function"
    },
    {
      "inputs": [],
      "name": "symbol",
      "outputs": [
        {
          "internalType": "string",
          "name": "",
          "type": "string"
        }
      ],
      "stateMutability": "view",
      "type": "function"
    },
    {
      "inputs": [],
      "name": "tokenName",
      "outputs": [
        {
          "internalType": "string",
          "name": "",
          "type": "string"
        }
      ],
      "stateMutability": "view",
      "type": "function"
    },
    {
      "inputs": [],
      "name": "totalSupply",
      "outputs": [
        {
          "internalType": "uint256",
          "name": "",
          "type": "uint256"
        }
      ],
      "stateMutability": "view",
      "type": "function"
    },
    {
      "inputs": [
        {
          "internalType": "address",
          "name": "to",
          "type": "address"
        },
        {
          "internalType": "uint256",
          "name": "amount",
          "type": "uint256"
        }
      ],
      "name": "transfer",
      "outputs": [],
      "stateMutability": "nonpayable",
      "type": "function"
    }
  ],
  "bytecode": "0x60806040526040518060400160405280600c81526020017f53616966277320546f6b656e00000000000000000000000000000000000000008152506000908051906020019061004f92919061013a565b506040518060400160405280600381526020017f53544b00000000000000000000000000000000000000000000000000000000008152506001908051906020019061009b92919061013a565b5060646002553480156100ad57600080fd5b50600254600460003373ffffffffffffffffffffffffffffffffffffffff1673ffffffffffffffffffffffffffffffffffffffff1681526020019081526020016000208190555033600360006101000a81548173ffffffffffffffffffffffffffffffffffffffff021916908373ffffffffffffffffffffffffffffffffffffffff16021790555061023e565b8280546101469061020c565b90600052602060002090601f01602090048101928261016857600085556101af565b82601f1061018157805160ff19168380011785556101af565b828001600101855582156101af579182015b828111156101ae578251825591602001919060010190610193565b5b5090506101bc91906101c0565b5090565b5b808211156101d95760008160009055506001016101c1565b5090565b7f4e487b7100000000000000000000000000000000000000000000000000000000600052602260045260246000fd5b6000600282049050600182168061022457607f821691505b60208210811415610238576102376101dd565b5b50919050565b61095b8061024d6000396000f3fe608060405234801561001057600080fd5b50600436106100625760003560e01c806318160ddd146100675780636c02a9311461008557806370a08231146100a35780638da5cb5b146100d357806395d89b41146100f1578063a9059cbb1461010f575b600080fd5b61006f61012b565b60405161007c9190610536565b60405180910390f35b61008d610131565b60405161009a91906105ea565b60405180910390f35b6100bd60048036038101906100b8919061066f565b6101bf565b6040516100ca9190610536565b60405180910390f35b6100db610208565b6040516100e891906106ab565b60405180910390f35b6100f961022e565b60405161010691906105ea565b60405180910390f35b610129600480360381019061012491906106f2565b6102bc565b005b60025481565b6000805461013e90610761565b80601f016020809104026020016040519081016040528092919081815260200182805461016a90610761565b80156101b75780601f1061018c576101008083540402835291602001916101b7565b820191906000526020600020905b81548152906001019060200180831161019a57829003601f168201915b505050505081565b6000600460008373ffffffffffffffffffffffffffffffffffffffff1673ffffffffffffffffffffffffffffffffffffffff168152602001908152602001600020549050919050565b600360009054906101000a900473ffffffffffffffffffffffffffffffffffffffff1681565b6001805461023b90610761565b80601f016020809104026020016040519081016040528092919081815260200182805461026790610761565b80156102b45780601f10610289576101008083540402835291602001916102b4565b820191906000526020600020905b81548152906001019060200180831161029757829003601f168201915b505050505081565b6102fc6040518060400160405280601f81526020017f7472616e7366657220746f2025732074686520616d6f756e7420697320256400815250838361042e565b80600460003373ffffffffffffffffffffffffffffffffffffffff1673ffffffffffffffffffffffffffffffffffffffff16815260200190815260200160002054101561037e576040517f08c379a0000000000000000000000000000000000000000000000000000000008152600401610375906107df565b60405180910390fd5b80600460003373ffffffffffffffffffffffffffffffffffffffff1673ffffffffffffffffffffffffffffffffffffffff16815260200190815260200160002060008282546103cd919061082e565b9250508190555080600460008473ffffffffffffffffffffffffffffffffffffffff1673ffffffffffffffffffffffffffffffffffffffff16815260200190815260200160002060008282546104239190610862565b925050819055505050565b6104c8838383604051602401610446939291906108b8565b6040516020818303038152906040527f0d26b925000000000000000000000000000000000000000000000000000000007bffffffffffffffffffffffffffffffffffffffffffffffffffffffff19166020820180517bffffffffffffffffffffffffffffffffffffffffffffffffffffffff83818316178352505050506104cd565b505050565b6104e4816104dc6104e7610508565b63ffffffff16565b50565b60006a636f6e736f6c652e6c6f679050600080835160208501845afa505050565b610513819050919050565b61051b6108f6565b565b6000819050919050565b6105308161051d565b82525050565b600060208201905061054b6000830184610527565b92915050565b600081519050919050565b600082825260208201905092915050565b60005b8381101561058b578082015181840152602081019050610570565b8381111561059a576000848401525b50505050565b6000601f19601f8301169050919050565b60006105bc82610551565b6105c6818561055c565b93506105d681856020860161056d565b6105df816105a0565b840191505092915050565b6000602082019050818103600083015261060481846105b1565b905092915050565b600080fd5b600073ffffffffffffffffffffffffffffffffffffffff82169050919050565b600061063c82610611565b9050919050565b61064c81610631565b811461065757600080fd5b50565b60008135905061066981610643565b92915050565b6000602082840312156106855761068461060c565b5b60006106938482850161065a565b91505092915050565b6106a581610631565b82525050565b60006020820190506106c0600083018461069c565b92915050565b6106cf8161051d565b81146106da57600080fd5b50565b6000813590506106ec816106c6565b92915050565b600080604083850312156107095761070861060c565b5b60006107178582860161065a565b9250506020610728858286016106dd565b9150509250929050565b7f4e487b7100000000000000000000000000000000000000000000000000000000600052602260045260246000fd5b6000600282049050600182168061077957607f821691505b6020821081141561078d5761078c610732565b5b50919050565b7f4e6f7420656e6f75676820746f6b656e73000000000000000000000000000000600082015250565b60006107c960118361055c565b91506107d482610793565b602082019050919050565b600060208201905081810360008301526107f8816107bc565b9050919050565b7f4e487b7100000000000000000000000000000000000000000000000000000000600052601160045260246000fd5b60006108398261051d565b91506108448361051d565b925082821015610857576108566107ff565b5b828203905092915050565b600061086d8261051d565b91506108788361051d565b9250827fffffffffffffffffffffffffffffffffffffffffffffffffffffffffffffffff038211156108ad576108ac6107ff565b5b828201905092915050565b600060608201905081810360008301526108d281866105b1565b90506108e1602083018561069c565b6108ee6040830184610527565b949350505050565b7f4e487b7100000000000000000000000000000000000000000000000000000000600052605160045260246000fdfea26469706673582212202644a2560e0de0125c19f2d1093c8ebf5809ea51a0974c129e163b32b31e620164736f6c63430008090033",
  "linkReferences": {},
  "deployedLinkReferences": {}
}